:100000001CC029C028C027C026C025C024C023C0CA
:1000100022C021C020C01FC01EC049C11CC01BC0BF
:100020001AC019C018C098C099C09AC09BC09CC083
:100030009DC09EC09FC0A0C0A1C011241FBECFED17
:10004000CDBF20E0A0E6B0E001C01D92A536B2070A
:10005000E1F750D102C2D4CFE82FF0E0E05AFF4FD1
:10006000208181E090E001C0880F6A95EAF744237F
:1000700011F0822B02C08095822380830895E82F9F
:10008000F0E0E05AFF4F60830895E0E6F0E0108270
:100090001182128213820895E82FF0E0E05AFF4F98
:1000A000108208953F924F925F926F927F928F924B
:1000B0009F92AF92BF92CF92DF92EF92FF920F93F7
:1000C0001F93CF93DF938C01E0DF17FF0BC01195D7
:1000D0000195110980916000806480936000E1E0E7
:1000E000F0E002C0E0E0F0E023E030E0CAE0D0E081
:1000F0008AE0E82EF12C4FE69FE7D92E57E0C52E77
:100100006DE7962E7DE6872EA6E67A2EBFE46B2E4F
:100110008BE5582E96E0492E5FE3352E309719F087
:1001200021153105A1F1C801BE0170D1CB01BE017D
:100130005CD15801A81AB90ACE01B70167D1C5012F
:1001400065D16A307105D8F46D5E7F4FD901A05A30
:10015000BF4F6F937F9308953C9211C04C920FC094
:100160005C920DC06C920BC07C9209C08C9207C04F
:100170009C9205C0CC9203C0DC9201C04C93CE018E
:100180006AE070E032D1EC012150310938F6DF919C
:10019000CF911F910F91FF90EF90DF90CF90BF9084
:1001A000AF909F908F907F906F905F904F903F9017
:1001B000089510926400E0E6F0E01082118212824D
:1001C0001382B89AB99ABA9ABB9A889A899A8A9AE3
:1001D0008B9A8C9A8D9A8E9AC098C198C298C3981F
:1001E000909A919A929A939A949A959A969A089537
:1001F00080916400813059F038F0823059F08330BA
:1002000059F4C298C39A08C0C398C09A05C0C09850
:10021000C19A02C0C198C29A909A919A929A939A5E
:10022000949A959A969AE0916400F0E0E05AFF4F14
:10023000808180FD9098E0916400F0E0E05AFF4FEB
:10024000808181FD9198E0916400F0E0E05AFF4FD9
:10025000808182FD9298E0916400F0E0E05AFF4FC7
:10026000808183FD9398E0916400F0E0E05AFF4FB5
:10027000808184FD9498E0916400F0E0E05AFF4FA3
:10028000808185FD9598E0916400F0E0E05AFF4F91
:10029000808186FD9698809164008F5F80936400D2
:1002A00080916400843010F01092640008951F92D1
:1002B0000F920FB60F9211242F933F934F935F939A
:1002C0006F937F938F939F93AF93BF93EF93FF931E
:1002D0008FDFFF91EF91BF91AF919F918F917F91B0
:1002E0006F915F914F913F912F910F900FBE0F90A3
:1002F0001F9018955EDF10BE80B7826080BF13BE6E
:1003000083B7846083BF8AEE86BF89B7816089BF67
:10031000789441E061E080E09FDE41E062E080E0CF
:100320009BDE6BE581E0ABDE6FE482E0A8DE66E693
:1003300083E0A5DE2FEF89E698E1215080409040D0
:10034000E1F700C00000A1DE66E083E098DE6BE527
:1003500082E095DE6FE481E092DE66E680E08FDE8B
:100360002FEF89E698E1215080409040E1F700C0EE
:10037000000081E091DE2FEF89E698E12150804076
:100380009040E1F700C000006DE680E078DE6DE7A8
:1003900081E075DE67E082E072DE6FE783E06FDEAA
:1003A0002FEF89E698E1215080409040E1F700C0AE
:1003B00000006FE682E063DE2FEF89E698E12150CE
:1003C00080409040E1F700C0000080E094E06ADEE9
:1003D0002FEF89E698E1215080409040E1F700C07E
:1003E00000008FEF9EEF5EDEFFCF0024552704C094
:1003F000080E591F880F991F009729F07695679569
:10040000B8F37105B9F7802D952F089597FB072E46
:1004100016F4009406D077FD08D00BD007FC05D069
:100420003EF4909581959F4F0895709561957F4F0B
:100430000895AA1BBB1B51E107C0AA1FBB1FA6172B
:10044000B70710F0A61BB70B881F991F5A95A9F77D
:0E04500080959095BC01CD010895F894FFCFE2
:00000001FF
